:100000000C9466000C9488000C9488000C94880072
:100010000C9488000C9488000C9488000C94880040
:100020000C9488000C9488000C9488000C94880030
:100030000C9488000C9488000C9488000C94880020
:100040000C9488000C9488000C9488000C94880010
:100050000C9488000C9488000C9488000C94B000D8
:100060000C9488000C940E100C9488000C9488005A
:100070000C9488000C9488000C9488000C948800E0
:100080000C9488000C9488000C9488000C948800D0
:100090000C94BE050C9488000C9488000C94880085
:1000A0000C9488000C9488000C9488000C948800B0
:1000B0000C9488000C9488000C9488000C948800A0
:1000C0000C9488000C9488000C94880011241FBEA6
:1000D000CFEFD1E2DEBFCDBF00E00CBF13E0A0E068
:1000E000B2E0EEE4FAE300E00BBF02C007900D922D
:1000F000A23DB107D9F71BBE1AE0A2EDB3E001C0E3
:100100001D92AD36B107E1F70E941C170C94251D16
:100110000C9400008FE787B98EE788B960E472E439
:100120008FE090E00E941C0514BC85E085BD16BCE4
:1001300080916E00816080936E00789480E090E002
:1001400005C0FC01EA53F84F1082019620918B0202
:1001500030918C0282179307A0F380E090E008951D
:100160001F920F920FB60F9211248F939F9380913D
:100170008D028823B1F48091D3039091D40301962A
:100180009093D4038093D3038233910550F0429A25
:10019000459902C0459A01C045981092D403109227
:1001A000D3039F918F910F900FBE0F901F901895C2
:1001B0004F925F926F927F928F929F92AF92BF9277
:1001C000CF92DF92EF92FF920F931F93CF93DF9323
:1001D0003C01141615060CF0F2C0FB01C080DD24B2
:1001E00080ED9FEFC80ED91EEB012F96A0E1AA2E3D
:1001F000B12C88249924BFE04B2E512C440E551E5F
:10020000D8C0C2018A199B098F3091050CF4D7C060
:10021000FE013D97608170E060537040C3010E9411
:10022000740A7C019FEFE9169FEFF90609F4B9C043
:10023000E114F10429F4419902C0419A01C04198A6
:10024000FE013B97808190E0C0979C01220F331FF5
:1002500053E0880F991F5A95E1F7280F391FFE01C7
:100260003A97808190E0C097820F931F9C01220FE4
:10027000331F73E0880F991F7A95E1F7280F391F14
:10028000FE013997808190E0C097820F931F8C0107
:10029000000F111FB3E0880F991FBA95E1F7080FFF
:1002A000191FFE013797808190E0C0979C01220FB3
:1002B000331F53E0880F991F5A95E1F7280F391F14
:1002C000FE013697808190E0C097820F931F9C01BA
:1002D000220F331F73E0880F991F7A95E1F7280FDB
:1002E000391FFE013597808190E0C097820F931FE0
:1002F000DC01AA0FBB1F53E0880F991F5A95E1F745
:10030000A80FB91FFE013397808190E0C0979C0130
:10031000220F331F73E0880F991F7A95E1F7280F9A
:10032000391FFE013297808190E0C097820F931FA2
:100330009C01220F331F53E0880F991F5A95E1F754
:10034000280F391FFE013197808190E0C097820FFE
:10035000931FBC01660F771F53E0880F991F5A95B2
:10036000E1F7680F791FFE013C9740814053FE0181
:100370003897208130E020533040200F311FFE019C
:100380003497008110E0005310400A0F1B1FE881D2
:10039000F0E0F097E60FF71FC301B7017F010E945D
:1003A0005E0B0894811C911CEFE0F0E0AE0EBF1EC6
:1003B0002F968C149D040CF424CF81E001C080E0C2
:1003C000DF91CF911F910F91FF90EF90DF90CF9031
:1003D000BF90AF909F908F907F906F905F904F9065
:1003E00008952F923F924F925F926F927F928F92D9
:1003F0009F92AF92BF92CF92DF92EF92FF920F93B4
:100400001F93CF93DF9300D00F92CDB7DEB76C016F
:100410000E943E089A838983C6010E9444082C01E9
:1004200086EC97E060E072E00E9449188981805D67
:100430008093C807842D805D8093C9078201000FD7
:10044000111F040D151D000F111F0E5F1F4F662495
:100450007724AA24BB2485C09AECE92E97E0F92ED4
:10046000E60CF71CC601B5010E945F0A00D000D05F
:10047000EDB7FEB73196ADB7BEB71296FC92EE92CD
:10048000119723E032E033832283958384830E9493
:10049000FB188DB79EB706960FB6F8949EBF0FBE99
:1004A0008DBF4301EE24FF244EC091012A53384FE3
:1004B000C601B7012B833C830E940D0C00D000D0F5
:1004C000EDB7FEB731962B813C81ADB7BEB7129622
:1004D0003C932E93119723E032E03383228395835C
:1004E00084830E94FB188EEC97E0880E991EADB7AE
:1004F000BEB716960FB6F894BEBF0FBEADBFC6010D
:10050000B501A7010E94170C00D000D0EDB7FEB7CF
:100510003196ADB7BEB712969C928E92119728E095
:1005200032E033832283958384830E94FB180894EE
:10053000E11CF11C8DB79EB706960FB6F8949EBFCE
:100540000FBE8DBF410186E0282E312C280C391CAE
:10055000E414F50409F0A9CF0894A11CB11C600EA5
:10056000711E29813A81A216B30609F075CF0F904A
:100570000F900F900F90DF91CF911F910F91FF90EF
:10058000EF90DF90CF90BF90AF909F908F907F9033
:100590006F905F904F903F902F900895DC01FC0189
:1005A00020E030E040E0CB01039704C05191450FBB
:1005B0002F5F3F4F28173907CCF3842F82958F7018
:1005C00090E0C0966A0F7B1FFB013397208130E0DB
:1005D0008217930769F450E04F705070405D5F4F91
:1005E00062507040FB01808190E04817590739F054
:1005F000409902C0409A01C0409880E0089581E08F
:100600000895EF92FF920F931F93CF93DF93CDB78F
:10061000DEB7C250D2400FB6F894DEBF0FBECDBFDA
:10062000CF5FDD4F99838883C150D2408E010F5F29
:100630001F4F80E092E0D801FC011D923197E9F74D
:10064000C80160E072E00E940B0690E082309105E4
:100650000CF4E1C1800F911FDC011C92C8016DE018
:1006600072E00E9450187C01DC010D900020E9F737
:100670008D0101501040081B190B009709F4CDC1E2
:10068000FC018281833509F48DC18435B0F4833453
:1006900009F462C1843450F48D3209F4C0C08F3340
:1006A00009F4B1C18B3209F0B1C11AC0843409F424
:1006B00089C18B3409F0AAC19CC1893509F41CC1D8
:1006C0008A3520F4883509F0A1C1D4C08A3509F4EF
:1006D000FCC08B3509F46FC18D3509F097C16FC12E
:1006E00003301105F4F400D000D0EDB7FEB7319619
:1006F00080E192E0ADB7BEB712969C938E931197AE
:1007000088E192E093838283F582E4820E94B418A8
:10071000EDB7FEB736960FB6F894FEBF0FBEEDBF2D
:100720007AC1CF5FDD4F88819981C150D2400E944C
:100730003E088A309105B4F000D00F928CE192E02F
:10074000ADB7BEB712969C938E93119788E192E055
:1007500014969C938E9313970E94B4180F900F9049
:100760000F900F90DE01149623E030E060E070E01F
:100770000150104019C0F701E20FF31F8081803350
:10078000B0F04D914A3398F4CB01880F991FF3E0F4
:10079000660F771FFA95E1F7680F791F640F711DD7
:1007A000605370402F5F3F4F2017310724F3CF5F16
:1007B000DD4F88819981C150D2400E944A08882328
:1007C00009F021C100D000D0EDB7FEB7319680E12D
:1007D00092E0ADB7BEB712969C938E93119788E1C5
:1007E00092E093838283F582E482D1C0F701E20F25
:1007F000F31F4081842F80538A30D0F4CB01880FBF
:10080000991F53E0660F771F5A95E1F7680F791F1C
:10081000640F711D605370402F5F3F4F06C023E08F
:1008200030E060E070E00150104020173107F4F232
:10083000CF5FDD4F88819981C150D2400E94B008BE
:1008400027C0F701E40FF51F8081982F90539A304D
:10085000D0F49B01220F331FA3E0660F771FAA95E8
:10086000E1F7620F731F90E0C097680F791F4F5F29
:100870005F4F06C043E050E060E070E00150104080
:1008800040175107F4F2CE018F5F9D4F0E9475090A
:10089000882309F0B8C0BAC0F701E40FF51F8081C2
:1008A000982F90539A30D0F49B01220F331FE3E02E
:1008B000660F771FEA95E1F7620F731F90E0C0970C
:1008C000680F791F4F5F5F4F06C043E050E060E064
:1008D00070E0D80111974A175B07F4F2CE018F5FE1
:1008E0009D4F0E94F209882319F488E192E002C02A
:1008F00082E392E00E94CD1843E050E060E070E0B7
:100900000150104018C0F701E40FF51F8081982FA7
:1009100090539A3098F49B01220F331FF3E0660F37
:10092000771FFA95E1F7620F731F90E0C097680F89
:10093000791F4F5F5F4F401751072CF3CF5FDD4F9B
:1009400088819981C150D2400E94740AFFEF8F3F85
:100950009F0709F058C05AC0CF5FDD4F8881998149
:10096000C150D2400E943E0800D000D0EDB7FEB783
:10097000319626E332E0ADB7BEB712963C932E9384
:10098000119722E332E033832283958384830E948C
:10099000B418EDB7FEB736960FB6F894FEBF0FBE8B
:1009A000EDBF3BC0CF5FDD4F88819981C150D24000
:1009B0000E944408D9CF81E08093D20324C01092D2
:1009C000D20321C0C701B8010E94CE02882319F1C9
:1009D000B7016D5F7F4FA80144505040CF5FDD4F9E
:1009E00088819981C150D2400E94D8008823A9F4FF
:1009F0000DC0CF5FDD4F88819981C150D2400E94E8
:100A0000840A882319F482E392E002C088E192E02C
:100A10000E94CD1802C080E001C081E0CE5FDD4FB2
:100A20000FB6F894DEBF0FBECDBFDF91CF911F91FF
:100A30000F91FF90EF9008950E9464149B01AC0108
:100A400060E074E284EF99E40E9426130E9438105B
:100A50006150704082E48093C80088E98093C900A7
:100A600086E08093CA008FEF8093CE001092D70368
:100A70001092D603872F992787FD9A958093CD00F2
:100A80006093CC007298739A8FE595E06EEF75E0F5
:100A90000E946A189093D9058093D8050895FC01A7
:100AA00080E090E008C02091C80025FFFCCF219194
:100AB0002093CE00019686179707ACF30895CF9345
:100AC000DF9300D00F92CDB7DEB78A3041F49DE0BE
:100AD00099838A83CE01019662E070E005C08B8322
:100AE000CE01039661E070E00E944F0580E090E047
:100AF0000F900F900F900F90DF91CF9108959091EC
:100B0000D7038091D6039817C1F09091D7038091B5
:100B1000D603981740F48091D6032091D70390E034
:100B2000821B910908958091D6032091D70390E00C
:100B3000821B910980509E4F089580E090E00895B7
:100B4000CF93C82F8A3011F08D3019F481E0809353
:100B5000D5030E947F0521E08F3F920769F0E09165
:100B6000D603F0E0E852FC4FC0838091D603809119
:100B7000D6038F5F8093D603CF9108951F920F9273
:100B80000FB60F920BB60F9211242F933F934F93F2
:100B90005F936F937F938F939F93AF93BF93EF93E5
:100BA000FF938091CE000E94A005FF91EF91BF912D
:100BB000AF919F918F917F916F915F914F913F91F5
:100BC0002F910F900BBE0F900FBE0F901F90189596
:100BD0009091D7038091D603981771F0E091D703D5
:100BE000F0E0E852FC4F80819091D7039091D703B9
:100BF0009F5F9093D70308958FEF08951092D503C8
:100C00000E947F050097E1F30E94E8058D3009F40A
:100C10008AE090E00895CF92DF92EF92FF920F93D7
:100C20001F93CF93DF93D82EC92EEB011092D503DB
:100C30000E947F050097A9F08C01C817D9070CF412
:100C40008E01ED2CFC2CC0E0D0E006C00E94E8052F
:100C5000F70181937F012196C017D107BCF3802F44
:100C600001C080E0DF91CF911F910F91FF90EF9035
:100C7000DF90CF9008958091D5030895CF93DF93AF
:100C80009C01FC01E05EFD4F1082DC014AE050E077
:100C9000CFEFDFEF1196DC93CE939B961C921E92C2
:100CA0009A979C961C929C979E961C921E929D973A
:100CB0009F961C929F97D1961C921E92D097D29687
:100CC0001C92D297D4961C921E92D397D5961C92C2
:100CD000D59780E090E0FD01E80FF91F13821282A2
:100CE00015821482049688329105A9F7415050402C
:100CF000D6964115510571F6F901E45EFD4F11825A
:100D00001082225E3D4FF9011182108280E090E056
:100D10000E942A0E21E08130910509F020E0822F07
:100D2000DF91CF9108950E94270E08950E94140E1E
:100D30000E942D0C90938F0280938E02813091053A
:100D400031F085309105A1F3009791F302C081E065
:100D5000089580E00895CF93DF93EA019B0161330A
:100D60007105A8F420573D4FF9012081332727FD55
:100D700030952830310519F40E94F90D05C0203155
:100D8000310529F40E94C30D9983888307C083E04D
:100D900090E090938F0280938E0213C00E942D0CDE
:100DA00090938F0280938E0280918E0290918F0299
:100DB0008130910521F08530910519F4EFCF81E064
:100DC00001C080E0DF91CF91089542989B0161338B
:100DD000710598F420573D4FF9012081332727FDF5
:100DE00030952830310519F40E94E20D0EC02031F3
:100DF000310519F40E94A80D08C082E090E090939C
:100E00008F0280938E0280E0089581E020918E020F
:100E100030918F022115310509F080E008956F921D
:100E20007F928F929F92AF92BF92CF92DF92EF927A
:100E3000FF920F931F93CF93DF9300D00F92CDB704
:100E4000DEB78C015B018EEF90E02B833C834983FE
:100E50005A830E94320C83E890E00E94350C80E0B7
:100E600090E0B8010E94380C81E090E063E070E00F
:100E70000E94380C4981842E5A81952E2B81E22EB6
:100E80003C81F32E02E010E0CC24DD241DC0F401EF
:100E900061914F01C80170E00E94380C0894C11C98
:100EA000D11C3701F701619171917F017070C80108
:100EB00001960E94380CF3016181C801029670E02E
:100EC0000E94380C0D5F1F4FCA14DB0404F38AE044
:100ED00090E00E94C618C501880F991F8A0D9B1DBE
:100EE00004960E943D0C0E94970D0E942D0C9C01BF
:100EF00090938F0280938E0281E02115310509F0D5
:100F000080E00F900F900F900F90DF91CF911F9185
:100F10000F91FF90EF90DF90CF90BF90AF909F9098
:100F20008F907F906F9008958F929F92AF92BF9213
:100F3000CF92DF92EF92FF920F931F93CF93DF93A5
:100F400000D00F92CDB7DEB78C015B018EEF90E041
:100F50002B833C8349835A830E94320C83E890E0C0
:100F60000E94350C80E090E0B8010E94380C81E0CE
:100F700090E062E070E00E94380C4981C42E5A81F2
:100F8000D52E2B81E22E3C81F32E03E010E0882445
:100F9000992416C00894811C911CF60161916F017F
:100FA000C401880F991F70E00E94380CF70161910D
:100FB00071917F017070C8010E94380C0E5F1F4F45
:100FC0008A149B043CF3C5010296880F991F0E9466
:100FD0003D0C0E94970D0E942D0C9C0190938F0256
:100FE00080938E0281E02115310509F080E00F9099
:100FF0000F900F900F90DF91CF911F910F91FF9065
:10100000EF90DF90CF90BF90AF909F908F9008951A
:10101000F9019C0181339105A8F420573D4FD90176
:101020002C91332727FD30952830310521F49F017D
:101030000E94940708952031310521F49F010E94F8
:101040000F07089582E090E090938F0280938E02C4
:1010500080E0089580918E0290918F0208959C0106
:101060008133910540F420573D4FF9018081992744
:1010700087FD9095089580E090E00895FC01E45E7E
:10108000FD4F808191810895FC01E25EFD4F8081DA
:1010900091810895CF92DF92EF92FF920F931F9369
:1010A000CF93DF938C01FC01E25EFD4FE080F18085
:1010B0004AE0E416F1040CF047C0862F90E081333B
:1010C000910508F041C0FC01E057FD4F208122232B
:1010D000D9F1D801C0E0D0E06C0114C0FD01E20FED
:1010E000F31F828193812C5F3F4F8C159D0571F119
:1010F0004F5F5F4F4E155F058CF32196D696CA3031
:10110000D10529F020E030E040E050E0F3CF20E0CE
:1011100030E0C701880F991F880F991F800F911F1A
:10112000FC01E20FF31F628313822A5C3F4F42E00F
:101130002C313407A9F7F801E25EFD4F0894E11C59
:10114000F11CF182E08202C080E001C081E0DF9109
:10115000CF911F910F91FF90EF90DF90CF90089566
:101160008F929F92AF92BF92CF92DF92EF92FF92B7
:101170000F931F93CF93DF93AC01FC01E25EFD4F11
:10118000208131812115310509F44CC000E010E0C7
:10119000A0E0B0E076E3C72ED12CA62EBB24EEEF64
:1011A0008E2EEFEF9E2E820E931E7901EE0CFF1C09
:1011B000EE0CFF1CE80EF91E1BC0808191818A1580
:1011C0009B0551F404C084819581918380836815C7
:1011D0007905CCF3198218826F5F7F4F34966217BE
:1011E00073075CF311960A5C1F4FAA30B10589F0B2
:1011F000AC9DF001AD9DF00DBC9DF00D112432961B
:10120000E40FF51F60E070E0E701C00FD11F2297E7
:10121000E6CF425E5D4F21503040FA01318320839A
:1012200081E001C080E0DF91CF911F910F91FF908D
:10123000EF90DF90CF90BF90AF909F908F900895E8
:10124000FC01E25EFD4F208131816217730754F487
:10125000FB01EE0FFF1FEE0FFF1FE80FF91F82814A
:10126000938108958FEF9FEF08959C016A30710577
:10127000D4F586E390E0689FF001699FF00D789FB8
:10128000F00D1124E20FF31F80819181EFEF8F3F6A
:101290009E0759F48FEF4F3F5807B1F0F901E45E14
:1012A000FD4F8081918101960DC0EFEF4F3F5E07AA
:1012B00059F4F901E45EFD4F8081918118161906F9
:1012C0001CF401979183808386E390E0689FF0018E
:1012D000699FF00D789FF00D1124E20FF31F5183E9
:1012E000408381E0089580E00895CF93DF93DC018F
:1012F000EB01FC01E45EFD4F608171816A30710594
:1013000054F5D7FD28C09C0140E050E00BC02A5C9A
:101310003F4FF901F697808191818C179D07D9F095
:101320004F5F5F4F4617570794F386E390E0689F3F
:10133000F001699FF00D789FF00D1124EA0FFB1F5B
:10134000D183C083A45EBD4F6F5F7F4F11967C93A6
:101350006E9381E001C080E0DF91CF910895FC01A0
:10136000DB0182A593A59B969C938E939A9784A567
:101370009C968C939C9785A596A59E969C938E9300
:101380009D9787A59F968C939F9780A991A9D196A9
:101390009C938E93D09782A9D2968C93D29783A94F
:1013A00094A9D4969C938E93D39785A9D5968C9324
:1013B000D5978081918111969C938E938AE090E0DD
:1013C0002281338113963C932E9312972481358189
:1013D00015963C932E931497019734961496009784
:1013E00079F70895CF92DF92EF92FF920F931F93B8
:1013F000CF93DF93EC01DB01FC01E45EFD4F6081E4
:101400007181AC0120E030E00BC04A5C5F4FFA0113
:10141000F697808191818A179B0711F12F5F3F4FCB
:101420002617370794F326173707D1F43CC08901F4
:101430000F5F1F4F0E9DC0010F9D900D1E9D900DC3
:1014400011242E9DB0012F9D700D3E9D700D112415
:101450006C0F7D1F8C0F9D1F0E94AF09980109C062
:10146000BCE1CB2EB2E0DB2ECC0EDD1E16E3E12E6E
:10147000F12CF60180819181019728173907BCF280
:101480002817390791F486E390E0289FF001299FFF
:10149000F00D389FF00D1124EC0FFD1F8FEF9FEF23
:1014A0009183808302C080E001C081E0DF91CF9111
:1014B0001F910F91FF90EF90DF90CF9008959C01C6
:1014C0006A30710574F486E390E0689FF001699FCB
:1014D000F00D789FF00D1124E20FF31F80819181B0
:1014E00008958FEF9FEF0895FC0180E090E0208148
:1014F00031812617370739F00196F6968A30910523
:10150000B1F78FEF9FEF0895EF92FF920F931F9324
:10151000CF93DF939C01FC01E45EFD4F00811181BC
:1015200080E090E0D901A25EBD4F46E3E42EF12CAD
:101530006FEF7FEF0BC071836083738362834F5FB4
:101540005F4F34964C175D07B4F3019680179107EF
:1015500084F4CD91DC9111978E9DF0018F9DF00D5B
:101560009E9DF00D11243296E20FF31F40E050E0F3
:10157000E9CF11961C921E9281E0DF91CF911F91CD
:101580000F91FF90EF900895AF92BF92CF92DF92AC
:10159000EF92FF920F931F93CF93DF937C01FC0197
:1015A000E05EFD4F8081882309F47CC010826701D2
:1015B000E70100E010E07CE1A72E72E0B72EAE0C50
:1015C000BF1C0EC08DA9882341F04BA95CA9C8019E
:1015D00068E170E00E94E5061DAA0F5F1F4FE696C6
:1015E000F501808191810817190764F3E70100E094
:1015F00010E06CE1A62E62E0B62EAE0CBF1C0FC050
:101600008AA9882349F01AAA48A959A9C80162E2FF
:1016100070E00E94E5061DAA0F5F1F4FE696F501D8
:1016200080819181081719075CF3E70100E010E061
:101630005CE1A52E52E0B52EAE0CBF1C0EC08FA5EE
:10164000882341F01FA64DA55EA5C80160E270E0A9
:101650000E94E5060F5F1F4FE696F501808191819C
:101660000817190764F3C0E0D0E08701045E1D4F3E
:1016700011C0F60184A5882341F014A642A553A504
:10168000CE016EE170E00E94E506219686E390E0CF
:10169000C80ED91EF80180819181C817D9074CF373
:1016A00081E001C080E0DF91CF911F910F91FF9009
:1016B000EF90DF90CF90BF90AF900895EF92FF92A0
:1016C0000F931F93DC016A3071050CF061C050E08C
:1016D00086E390E0689FF001699FF00D789FF00D20
:1016E0001124EA0FFB1F83A994A98417950741F0E1
:1016F00081E085AB54AB43ABFD01E05EFD4F8083E1
:1017000086E390E0689FF001699FF00D789FF00DEF
:101710001124EA0FFB1F80A991A98E159F0541F0A6
:1017200081E082ABF1AAE0AAFD01E05EFD4F80837B
:1017300086E390E0689FF001699FF00D789FF00DBF
:101740001124EA0FFB1F82A593A58217930741F08E
:1017500081E084A733A722A7FD01E05EFD4F8083CF
:1017600086E390E0689FF001699FF00D789FF00D8F
:101770001124EA0FFB1F85A596A58017910751F04C
:1017800081E087A716A705A7A05EBD4F8C9303C075
:1017900080E001C081E01F910F91FF90EF900895CC
:1017A00081E00895CF93DF93EC01DB016A3071058E
:1017B00074F486E390E0689FF001699FF00D789FD4
:1017C000F00D1124EC0FFD1F6081718102C06FEFDD
:1017D0007FEFFA01EE0FFF1FEE0FFF1FEC0FFD1F53
:1017E0000280F381E02D4F5F5F4F440F551F440F80
:1017F000551F86E390E0A89F9001A99F300DB89FE8
:10180000300D1124420F531F4C0F5D1FCB01BF0140
:101810000E94AB06DF91CF910895FB01EE0FFF1FF1
:10182000EE0FFF1FE80FF91F828193810895FA01DF
:101830003196EE0FFF1FEE0FFF1F26E330E0629F91
:10184000A001639F500D729F500D1124E40FF51FEE
:10185000E80FF91F8081918108958091C1029091D4
:10186000C20208958093DC0508958093DE050895F3
:10187000FC01E652FA4F658308958093DD050895D3
:1018800020E030E090917E06982311F021E030E0D6
:10189000C901089580917D0690E00895FC01E65805
:1018A000F94F858190E00895362F20E0280F391FE9
:1018B000C9010895282F30E0C90108958070892F4B
:1018C00090E008950F931F93CF93DF938091C2060A
:1018D0009091C306892B09F4BBC08091DC058E3F33
:1018E00009F4ACC08091C1029091C202892B29F405
:1018F0001092C10686E08093C0068091C10690E0F8
:101900006091C00670E0681B790B8658994F0E9461
:10191000E10F9091C106980F9093C1068091C00687
:10192000981720F40E94EB0E019771F07091C10698
:10193000472F50E0DA0111978A010250104060E011
:10194000ED01C658D94F18C08091C106882309F00F
:1019500072C086E090E074C0F901E658F94F8081CA
:101960008F3F19F481818F3F61F02017310719F4FF
:1019700088818F3F31F06F5F262F30E02A173B07B9
:101980005CF36623A1F090E0421B530B08C0E658BD
:10199000F94FDF01A20FB31F8C9180839F5FE92F66
:1019A000F0E0E417F5079CF3761B7093C1062091D5
:1019B000C1068091C006281730F19091DC05809116
:1019C0007C069817C1F560917D066C5F6093C00638
:1019D000261790F4822F90E070E0681B790B8658F0
:1019E000994F0E94E10F9091C106980F9093C10604
:1019F0008091C006981738F080917D06A82FB0E03E
:101A000020E090E00CC085E090E09093C2028093CB
:101A1000C1021EC0E658F94F8281980F2F5FE22F56
:101A2000F0E0AE17BF07B4F7A658B94F90951396DC
:101A30008C91891719F087E090E002C081E090E076
:101A40009093C2028093C1021092C3061092C20604
:101A5000DF91CF911F910F9108951F938091C2063E
:101A60009091C306019709F460C081E090E09093E3
:101A7000C3068093C2068091DD05893940F49091B8
:101A8000DE05892F8150863028F0933819F084E0E4
:101A900090E031C08FEF8093DA058093DB05809171
:101AA000DD05A82FB0E020E090E005C0E652FA4F37
:101AB0008281980F2F5FE22FF0E0AE17BF07B4F7D7
:101AC000A652BA4F909513969C938091C102909123
:101AD000C2020697029710F40E94B10E1091DD0524
:101AE0001C5F8AED95E0612F70E00E94B60E18171A
:101AF00059F082E090E09093C2028093C10210926C
:101B0000C3061092C20611C08091DE05823029F40E
:101B10008091E00590E0069602C086E090E00E9489
:101B2000DA0E1092C2021092C1021F9108950E9413
:101B30002D0D8091C1029091C202892B41F40E9427
:101B4000620C8091C1029091C2020597C1F3089581
:101B5000282F8091C2069091C306892B99F4209377
:101B6000DC0583E08093DE056093DF05CA014093C6
:101B7000E00580709093E10585E08093DD050E948B
:101B8000970D0895FFCF282F8091C2069091C3062C
:101B9000892BB9F42093DC0582E08093DE05609305
:101BA000DF058093E00584E08093DD050E94970DBA
:101BB0003091800620E080917F06280F311DC901F9
:101BC0000895FFCF282F8091C2069091C306892BDC
:101BD00079F42093DC0583E08093DE056093DF05D4
:101BE0004093E00584E08093DD050E94970D089501
:101BF000FFCF282F8091C2069091C306892B99F4BC
:101C00002093DC0582E08093DE056093DF0581E0B0
:101C10008093E00584E08093DD050E94970D80911C
:101C20007F0690E00895FFCF282F8091C206909103
:101C3000C306892B59F42093DC0581E08093DE05EF
:101C400082E08093DD050E94970D0895FFCF0E94EA
:101C5000B00E08950F931F938C016F5F7F4F8827FD
:101C600077FD8095982F0E9464149B01AC0160E081
:101C700074E284EF99E40E942613AB01BC01C80111
:101C80000E94570E892B19F420E030E00CC081E04F
:101C900090E09093C2028093C1021092C30610920A
:101CA000C20621E030E0C9011F910F910895EF9223
:101CB000FF920F931F937A018B0182E48093C000FF
:101CC00088E98093C10086E08093C20060E074E2FE
:101CD00084EF99E4A80197010E9426130E9438100E
:101CE000615070407093C5006093C40060E074E27E
:101CF00084E799E4A80197010E94261320E030E0D0
:101D000040E451E40E94251260935B0A70935C0AE0
:101D100080935D0A90935E0A20915B0A30915C0A81
:101D200040915D0A50915E0A60E070E08AE793E4BA
:101D30000E9426130E94381070935A0A6093590A21
:101D40007298739A8FEF8093C6001092C407109216
:101D5000C50781E090E01F910F91FF90EF900895EB
:101D600008958091C5078093C4070895AC01F89445
:101D70007398729A20E030E011C08091C00085FF16
:101D8000FCCF8091C00080648093C000FA01E20F14
:101D9000F31F80818093C6002F5F3F4F26173707C0
:101DA00064F38091C00086FFFCCF7298739A789498
:101DB000C90108951092620A1092610A2091590A8D
:101DC00030915A0A265F3F4F280F391F3093600A1F
:101DD00020935F0A0895AF92BF92CF92DF92EF9265
:101DE000FF920F931F938091610A9091620A01966E
:101DF0009093620A8093610A2091610A3091620A8D
:101E000080915F0A9091600A8217930718F421E08D
:101E100030E074C0A0905B0AB0905C0AC0905D0A8C
:101E2000D0905E0AC601B5012BEA3AEA4AEA50E4CC
:101E30000E9425127B018C0120E030E040E85FE346
:101E40000E943314882314F461E054C0C801B70120
:101E500020E030E04FE753E40E94D11318160CF055
:101E600045C0C601B50120E030E04AE754E40E94D5
:101E700026135B016C0120E030E04AE755E40E9444
:101E800025127B018C0120E030E040E85FE30E94F6
:101E9000331488231CF461E070E024C0C801B7014A
:101EA00020E03FEF4FE757E40E94D1131816B4F437
:101EB000C601B50120E030E040E251E40E94251265
:101EC0000E94381080E991E005C0FC013197F1F7DC
:101ED0006150704061157105C1F70EC0C801B701AE
:101EE0000E943810CB010197F1F706C0C801B70175
:101EF0000E9438106A95F1F720E030E0C9011F9187
:101F00000F91FF90EF90DF90CF90BF90AF9008952A
:101F10009091C4078091C507981719F420E030E02C
:101F200017C09091C4078091C507981738F4809125
:101F3000C5079091C407282F30E008C08091C507DD
:101F40009091C407282F30E020503F4F291B3109C2
:101F5000C90108951F93182F0E94880F8F3F910584
:101F600091F0E091C507F0E0EC53F94F10838091B8
:101F7000C5078F3F19F41092C50705C08091C507AA
:101F80008F5F8093C5071F9108959091C40780913A
:101F9000C507981711F4EFEF12C0E091C407F0E005
:101FA000EC53F94FE0818091C4078F3F19F41092F0
:101FB000C40705C08091C4078F5F8093C4078E2F2C
:101FC0000895EF92FF920F931F93CF93DF937C01BD
:101FD000EB019091C4078091C507981719F400E0B0
:101FE00010E014C00E94880F8C01C817D9070CF4A8
:101FF0008E01C0E0D0E007C00E94C50FF701EC0FD2
:10200000FD1F80832196C017D107B4F3C801DF916B
:10201000CF911F910F91FF90EF9008951F920F9213
:102020000FB60F920BB60F9211242F933F934F933D
:102030005F936F937F938F939F93AF93BF93EF9330
:10204000FF938091C6000E94AA0FFF91EF91BF916C
:10205000AF919F918F917F916F915F914F913F9140
:102060002F910F900BBE0F900FBE0F901F901895E1
:10207000CF92DF92EF92FF920F931F936B017C013F
:1020800020E030E040E05FE40E94021487FD11C0D0
:10209000C701B60120E030E040E05FE40E94ED11AE
:1020A0000E94DB148B019C010050104020403048FE
:1020B00006C0C701B6010E94DB148B019C01B80168
:1020C000C9011F910F91FF90EF90DF90CF9008957D
:1020D000A0E0B0E0EEE6F0E10C941418EC014B0146
:1020E000FA018881823008F43EC1DB019C91923074
:1020F00008F436C1843059F4943009F034C1998120
:1021000011968C911197981709F027C12CC1943022
:1021100009F426C19230A9F4823009F024C1CE011D
:1021200028E0DC010D90CD01DA010D92AD012150C6
:10213000C1F7D40111968C911197998189238183DC
:1021400011C1823009F40CC1AA80BB80DB01129658
:102150004D915C911397CC80DD80EE80FF801496CA
:102160000D911D912D913C911797C501841B950BE5
:10217000DC0197FF04C0AA27BB27A81BB90BA0321C
:10218000B1050CF067C01816190684F5280139014D
:102190000A2E04C076946794579447940A94D2F711
:1021A00041E050E060E070E004C0440F551F661F3E
:1021B000771FAA95D2F741505040604070404023AD
:1021C00051236223732381E090E0A0E0B0E0411549
:1021D00051056105710519F480E090E0DC018C0186
:1021E0009D0104291529262937293FC00097E9F1C7
:1021F000AA0EBB1E260137010A2E04C076946794EE
:10220000579447940A94D2F741E050E060E070E0C0
:1022100004C0440F551F661F771FAA95D2F741507F
:102220005040604070404C215D216E217F2181E053
:1022300090E0A0E0B0E0411551056105710519F489
:1022400080E090E0DC016C017D01C428D528E628FF
:10225000F7280BC04A155B0524F400E010E0980154
:1022600004C05A01CC24DD2476018981D401119661
:102270009C911197891709F445C0882329F00C19FE
:102280001D092E093F0908C0D701C601801B910B0B
:10229000A20BB30B8C019D0137FD04C01182B382E8
:1022A000A2820BC081E08183B382A2823095209507
:1022B000109501951F4F2F4F3F4F048315832683A1
:1022C00037830DC0880F991FAA1FBB1F8483958376
:1022D000A683B783828193810197938382838481CC
:1022E0009581A681B781AC01BD014150504060404D
:1022F00070404F3F2FEF52072FEF62072FE3720717
:1023000008F30BC08183B382A2820C0D1D1D2E1D0C
:102310003F1D048315832683378383E080834481B4
:1023200055816681778177FF1DC0DB01CA0181700D
:102330009070A070B0707695679557954795842BEF
:10234000952BA62BB72B84839583A683B783828195
:10235000938101969383828305C0C3ECD2E003C0CE
:10236000E40101C0EF01CE01CDB7DEB7E0E10C948E
:102370003018A0E2B0E0EFEBF1E10C942218DC01A0
:10238000CB018D839E83AF83B88729833A834B83A8
:102390005C83CE010596BE01675E7F4F0E94561694
:1023A000CE010196BE016F5E7F4F0E945616CE0190
:1023B0004996BE016F5E7F4FAE01475F5F4F0E943F
:1023C00068100E947F15462F572F682F792FCB0159
:1023D000BA01A096E2E00C943E18A0E2B0E0E3EF70
:1023E000F1E10C942218DC01CB018D839E83AF8335
:1023F000B88729833A834B835C83CE010596BE015F
:10240000675E7F4F0E945616CE010196BE016F5E39
:102410007F4F0E9456168A8991E089278A8BCE01C8
:102420004996BE016F5E7F4FAE01475F5F4F0E94CE
:1024300068100E947F15462F572F682F792FCB01E8
:10244000BA01A096E2E00C943E18A0E2B0E0EBE204
:10245000F2E10C941418DC01CB018D839E83AF83D1
:10246000B88729833A834B835C83CE010596BE01EE
:10247000675E7F4F0E945616CE010196BE016F5EC9
:102480007F4F0E945616998D923078F0898982305C
:10249000C0F0943019F4823041F4CAC0843019F489
:1024A000923079F4C5C0923051F481E02A8D9A8936
:1024B000291709F480E08A8FCE014996BBC082308B
:1024C00051F481E02A8D9A89291709F480E08A8BDA
:1024D000CE014196AFC04D8C5E8C6F8C78A00D897B
:1024E0001E892F89388DE0E2F0E040E050E0BA012B
:1024F000882499245401CC24DD247601C201817002
:1025000090700097D1F0C00ED11EE21EF31EDB01C9
:10251000CA01880D991DAA1DBB1D41E050E060E075
:1025200070E0C016D106E206F30618F040E050E075
:10253000BA01480F591F6A1F7B1F880C991CAA1CDF
:10254000BB1C37FF08C081E090E0A0E0B0E0882A23
:10255000992AAA2ABB2A000F111F221F331F769423
:10256000679457944794319749F68B8D9C8D2B89AE
:102570003C89820F931F02969C878B8781E02A8D6E
:102580009A89291709F480E08A872B853C8517C032
:10259000CA0181709070009761F0F694E794D79427
:1025A000C79480E090E0A0E0B0E8C82AD92AEA2ADF
:1025B000FB2A76956795579547952F5F3F4F77FD97
:1025C000E7CFC9010BC0440F551F661F771FF7FCEB
:1025D0004160CC0CDD1CEE1CFF1C01974030A0E0DC
:1025E0005A07A0E06A07A0E47A0768F38B879C8704
:1025F000DB01CA018F779070A070B07080349105B4
:10260000A105B10561F447FD0AC0C114D104E1047C
:10261000F10429F0405C5F4F6F4F7F4F40784D874A
:102620005E876F87788B83E08987CE01099602C029
:1026300083EC92E00E947F15462F572F682F792F49
:10264000CB01BA01A096E0E10C943018A8E1B0E00B
:10265000ECE2F3E10C941C18DC01CB018D839E832A
:10266000AF83B88729833A834B835C83CE01059679
:10267000BE016F5E7F4F0E945616CE010196BE01CD
:10268000675F7F4F0E9456169989923008F475C093
:102690008985823008F474C02A893A8523272A8BD9
:1026A000943011F0923021F4981709F066C06BC095
:1026B000843039F41D8A1E8A1F8A188E1C8A1B8A50
:1026C0005CC0823019F484E0898B57C02B893C8927
:1026D0008B859C85281B390B3C8B2B8B8D899E8988
:1026E000AF89B88DCD84DE84EF84F8888C159D0584
:1026F000AE05BF0540F4880F991FAA1FBB1F2150CC
:1027000030403C8B2B8BEFE1F0E000E010E020E06C
:1027100030E440E050E0BA018C159D05AE05BF05E0
:1027200040F0402B512B622B732B8C199D09AE0965
:10273000BF093695279517950795880F991FAA1FEA
:10274000BB1F319749F78A019B010F7710702070EA
:102750003070003411052105310559F447FD09C0D9
:102760000097A105B10529F0405C5F4F6F4F7F4F87
:1027700040784D8B5E8B6F8B788FCE01419605C074
:10278000CE01099602C083EC92E00E947F15462F8D
:10279000572F682F792FCB01BA016896E8E00C9487
:1027A0003818A8E1B0E0E7EDF3E10C942218DC0161
:1027B000CB018D839E83AF83B88729833A834B8374
:1027C0005C83CE010596BE016F5E7F4F0E94561658
:1027D000CE010196BE01675F7F4F0E945616898920
:1027E000823058F08985823040F0CE014196BE019A
:1027F000675F7F4F0E94BF1601C08FEF6896E2E0CF
:102800000C943E18A8E1B0E0E8E0F4E10C94221842
:10281000DC01CB018D839E83AF83B88729833A8304
:102820004B835C83CE010596BE016F5E7F4F0E9495
:102830005616CE010196BE01675F7F4F0E94561665
:102840008989823058F08985823040F0CE014196E6
:10285000BE01675F7F4F0E94BF1601C08FEF689671
:10286000E2E00C943E18A8E1B0E0E9E3F4E10C9456
:102870002218DC01CB018D839E83AF83B887298327
:102880003A834B835C83CE010596BE016F5E7F4F1A
:102890000E945616CE010196BE01675F7F4F0E94CF
:1028A00056168989823058F08985823040F0CE01F1
:1028B0004196BE01675F7F4F0E94BF1601C081E055
:1028C0006896E2E00C943E18CF92DF92EF92FF926E
:1028D000CF93DF93CDB7DEB728970FB6F894DEBF5E
:1028E0000FBECDBF6B017C0183E08983D701C60198
:1028F0008827B7FD83959927AA27BB27282F8A8386
:10290000C114D104E104F10419F482E0898335C0D3
:102910008EE190E09C838B83222389F080E0C816AF
:1029200080E0D80680E0E80680E8F80659F1F094E7
:10293000E094D094C094C11CD11CE11CF11CCD8248
:10294000DE82EF82F886C701B6010E942C1501973E
:102950001816190694F4082E04C0CC0CDD1CEE1CCD
:10296000FF1C0A94D2F7CD82DE82EF82F8862EE138
:1029700030E0281B390B3C832B83CE0101960E944B
:102980007F1504C060E070E080E09FEC382F292FB5
:10299000862F972FA32FB22FBC01CD0128960FB6FB
:1029A000F894DEBF0FBECDBFDF91CF91FF90EF90C7
:1029B000DF90CF900895ACE0B0E0E1EEF4E10C944C
:1029C0002018DC01CB0189839A83AB83BC83CE01C1
:1029D0000196BE016B5F7F4F0E9456168D8182303B
:1029E00069F1823058F1843039F02F81388537FD14
:1029F00025C02F31310544F08E81882319F100E084
:102A000010E020E030E822C08EE190E0821B930BC2
:102A100009851A852B853C8504C036952795179521
:102A200007958A95D2F78E81882381F0309520957D
:102A3000109501951F4F2F4F3F4F08C000E010E049
:102A4000980104C00FEF1FEF2FEF3FE7B801C90156
:102A50002C96E4E00C943C18CF92DF92EF92FF9218
:102A60000F931F938B019C01003080E0180781E0D9
:102A7000280780E0380750F40F3F11052105310584
:102A800009F088F480E090E0DC0116C00030E0E05E
:102A90001E07E0E02E07E1E03E0750F480E190E001
:102AA000A0E0B0E009C088E090E0A0E0B0E004C0A1
:102AB00088E190E0A0E0B0E040E250E060E070E04B
:102AC000481B590B6A0B7B0B6801790104C0F69413
:102AD000E794D794C7948A95D2F7D701C601855356
:102AE0009D4FFC018081481B510961097109CA0190
:102AF0001F910F91FF90EF90DF90CF900895CF92AC
:102B0000DF92EF92FF920F931F93DC0114964D9189
:102B10005D916D917C9117971196EC9111978C9125
:102B2000823020F460618FEF90E0A5C0843009F41A
:102B30009DC0823009F494C04115510561057105AD
:102B400009F491C012968D919C9113972FEF8238C2
:102B500092070CF059C022E83FEF281B390B2A31AD
:102B6000310564F56A017B01022E04C0F694E794F6
:102B7000D794C7940A94D2F781E090E0A0E0B0E047
:102B800004C0880F991FAA1FBB1F2A95D2F701976F
:102B9000A109B10984239523A623B72341E050E07E
:102BA00060E070E00097A105B10519F440E050E045
:102BB000BA014C295D296E297F2903C040E050E00D
:102BC000BA01DB01CA018F779070A070B0708034B9
:102BD0009105A105B10539F447FF09C0405C5F4F7D
:102BE0006F4F7F4F04C0415C5F4F6F4F7F4F81E05D
:102BF00090E0403020E0520720E0620720E47207B6
:102C000038F580E090E024C0803891057CF58A0199
:102C10009B010F7710702070307000341105210572
:102C2000310539F447FF09C0405C5F4F6F4F7F4F5C
:102C300004C0415C5F4F6F4F7F4F77FD03C08158E9
:102C40009F4F06C0769567955795479580589F4F3B
:102C500097E076956795579547959A95D1F70BC06C
:102C600080E090E005C080E090E005C08FEF90E04C
:102C700040E050E0BA01982F979599279795A62F95
:102C8000AF77E795EE27E79586953A2F392B282FD2
:102C90002E2B842F952FA32FB22FBC01CD011F9176
:102CA0000F91FF90EF90DF90CF900895DC01FB0132
:102CB0004C9111965C91119712968C911297682FF6
:102CC0006F7770E0982F991F9927991F13962C9171
:102CD0001397822F880F892B90E0221F2227221F13
:102CE0002183009739F5411551056105710511F4EE
:102CF00082E029C082E89FEF9383828327E0440F1C
:102D0000551F661F771F2A95D1F783E0808309C07E
:102D1000440F551F661F771F82819381019793830C
:102D20008283403080E0580780E0680780E47807BD
:102D300078F320C08F3F910579F441155105610565
:102D4000710519F484E08083089564FF03C081E075
:102D5000808310C010820EC08F579040938382836F
:102D600083E0808387E0440F551F661F771F8A9595
:102D7000D1F7706444835583668377830895CF9336
:102D8000FC01DB019081923008F44CC08C918230C0
:102D900008F448C0943069F42181843039F41196E4
:102DA0008C91119790E0821B910944C02223D1F1AC
:102DB0003FC0843021F0923041F48230B1F111965D
:102DC0008C9111978823A1F12DC0C181823001F12E
:102DD00011968C911197C817D9F48281938112961C
:102DE0002D913C9113972817390794F08217930778
:102DF000BCF0448155816681778114968D919D91B7
:102E00000D90BC91A02D84179507A607B70718F45D
:102E1000CC2341F00DC0481759076A077B0728F4F7
:102E2000CC2331F081E090E005C080E090E002C06A
:102E30008FEF9FEFCF910895CF93DF93CDB7DEB79C
:102E4000C152D2400FB6F894DEBF0FBECDBF0E9474
:102E50008A008CE392E00E94CD187E010894E11C68
:102E6000F11CC70161E070E00E943E0618B84FEF08
:102E700059E668E1415050406040E1F700C0000071
:102E80008FEF88B900E010E0B7E78B2EB2E09B2E01
:102E9000CE2CEF2C8DE5A82E82E0B82E6FEF79E6D0
:102EA00088E1615070408040E1F700C0000088B1C7
:102EB0008E6188B928B1C801880F991F8E718095DD
:102EC000822388B9C8010E9496068823B9F400D0ED
:102ED0000F92ADB7BEB71296BC92AE9211971496F0
:102EE0001C930E9313970E94B41888B1806F88B911
:102EF00040980F900F900F900F9017C000D00F9236
:102F0000EDB7FEB792828182148303830E94B418C6
:102F10000F900F900F900F908C2D9E2DB8010E9456
:102F2000750988B1806F88B946980F5F1F4F0A30C6
:102F3000110509F0B3CFCE0101966AE070E00E945E
:102F4000D00B8FEF88B980E090E021E030E0A9015C
:102F5000082E02C0440F551F0A94E2F7409548B965
:102F60004FEF54E36CE0415050406040E1F700C047
:102F7000000001968730910551F78FEF88B91092C4
:102F80008D020E943B06882379F0449902C0449A3E
:102F900001C04498CE0101960E940103882321F0CC
:102FA000CE0101960E94C40ACE0101960E943E08FD
:102FB0006C01CE0101960E9444085C018091D2030D
:102FC0008823F9F2EE24FF2411C0CE010196B70147
:102FD000A8010E94D20B0F5F1F4F02C000E010E05B
:102FE0000A151B0594F30894E11CF11CEC14FD0474
:102FF000ACF3CA9CC001CB9C900DDA9C900D1124BF
:10300000181619060CF0BDCF439902C0439A01C0AF
:103010004398CE0101960E94F10186EC97E00E9450
:10302000CD18AFCF2F923F924F925F926F927F92C7
:103030008F929F92AF92BF92CF92DF92EF92FF92C8
:103040000F931F93CF93DF93CDB7DEB7CA1BDB0B74
:103050000FB6F894DEBF0FBECDBF19942A88398809
:1030600048885F846E847D848C849B84AA84B98420
:10307000C884DF80EE80FD800C811B81AA81B9812C
:10308000CE0FD11D0FB6F894DEBF0FBECDBFED0140
:103090000895FB01DC0101900D920020E1F70895F5
:1030A000FB0151915523A9F0BF01DC014D9145175A
:1030B0004111E1F759F4CD010190002049F04D9103
:1030C00040154111C9F3FB014111EFCF81E090E0C0
:1030D000019708950F931F93CF93DF938C01EB011A
:1030E000009711F42097C1F181E090E06EE070E06C
:1030F0000E94311BFC01009789F180E883832097AF
:1031000071F0D387C28781E883838091630A9091AD
:10311000640A009721F4F093640AE093630A0115AE
:103120001105E1F01187008783818260838380919C
:10313000650A9091660A009789F4F093660AE09315
:10314000650A8091670A9091680A009739F4F093B4
:10315000680AE093670A02C0E0E0F0E0CF01DF9187
:10316000CF911F910F910895CF93DF93CDB7DEB725
:10317000FE013696619171918091650A9091660A7F
:10318000AF010E942A19DF91CF9108956091650ADD
:103190007091660A0E949B1C08950F931F93CF9312
:1031A000DF938C01E091650AF091660A838181FFCB
:1031B0001AC0C0E0D0E005C01995009711F0CFEF1C
:1031C000DFEFF80181918F016091650A7091660AC5
:1031D000DB011896ED91FC911997882369F78AE035
:1031E0001995009711F0CFEFDFEFCE01DF91CF916E
:1031F0001F910F9108950F931F93CF93DF93CDB736
:10320000DEB72E970FB6F894DEBF0FBECDBF0E8986
:103210001F8986E08C831A8309838FEF9FE79E8343
:103220008D83AE01465E5F4FCE010196688D798D2C
:103230000E942A19EF81F885E00FF11F10822E9667
:103240000FB6F894DEBF0FBECDBFDF91CF911F91B7
:103250000F9108952F923F924F925F926F927F92BB
:103260008F929F92AF92BF92CF92DF92EF92FF9296
:103270000F931F93CF93DF93CDB7DEB72D970FB684
:10328000F894DEBF0FBECDBF3C017D876C875A012D
:10329000FC0117821682838181FFC8C12E01089428
:1032A000411C511CF3019381EC85FD8593FD8591B3
:1032B00093FF8191FD87EC87882309F4B3C18532A0
:1032C00041F493FD859193FF8191FD87EC878532D1
:1032D00029F490E0B3010E949B1CE4CFFF24EE246C
:1032E00010E01032B0F48B3269F08C3228F4803266
:1032F00051F0833271F40BC08D3239F0803349F4D0
:1033000011602CC01260146029C0186027C01061C1
:1033100025C017FD2EC0282F20532A3098F416FF01
:1033200008C08F2D880FF82EFF0CFF0CF80EF20E40
:1033300015C08E2D880FE82EEE0CEE0CE80EE20E76
:1033400010620CC08E3221F416FD6CC1106406C0F0
:103350008C3611F4106802C0883659F4EC85FD856E
:1033600093FD859193FF8191FD87EC87882309F078
:10337000B8CF982F9554933018F09052933038F47A
:1033800024E030E0A20EB31E3FE339830FC0833642
:1033900031F0833781F0833509F05AC022C0F5013E
:1033A0008081898322E030E0A20EB31E21E0C22E8C
:1033B000D12C420114C092E0292E312C2A0C3B1C46
:1033C000F5018080918016FF03C06F2D70E002C070
:1033D0006FEF7FEFC4010E94901C6C0151011F77B9
:1033E00015C082E0282E312C2A0C3B1CF501808070
:1033F000918016FF03C06F2D70E002C06FEF7FEF6A
:10340000C4010E947E1C6C011068510113FD1CC098
:1034100006C080E290E0B3010E949B1CEA948E2DCE
:1034200090E0C816D906A8F30FC0F40117FD8591E6
:1034300017FF81914F0190E0B3010E949B1CE110A6
:10344000EA940894C108D108C114D10471F7E7C007
:10345000843611F0893651F5F50117FF07C08081D8
:103460009181A281B38124E030E008C08081918104
:10347000AA2797FDA095BA2F22E030E0A20EB31E36
:10348000012F0F76B7FF08C0B095A0959095819554
:103490009F4FAF4FBF4F0068BC01CD01A2012AE092
:1034A00030E00E94C71CD82ED4183FC0853721F4C5
:1034B0001F7E2AE030E020C0197F8F36A9F08037C8
:1034C00020F4883509F0AEC00BC0803721F0883772
:1034D00009F0A8C001C0106114FF09C0146007C042
:1034E00014FF08C0166006C028E030E005C020E1E7
:1034F00030E002C020E132E0F50117FF07C0608133
:1035000071818281938144E050E006C060817181C5
:1035100080E090E042E050E0A40EB51EA2010E94BF
:10352000C71CD82ED418012F0F7706FF09C00E7FB5
:10353000DF1430F404FF06C002FD04C00F7E02C099
:103540001D2D01C01F2D802F90E004FF0CC0FE0137
:10355000ED0DF11D2081203311F4097E09C002FF19
:1035600006C01E5F05C086789070009709F01F5F47
:10357000802E992403FD12C000FF0DC0FD2C1E15E6
:1035800050F4FE0CF11A1E2D06C080E290E0B3014B
:103590000E949B1C1F5F1E15C0F304C01E1510F473
:1035A000E11A01C0EE2484FE0FC080E390E0B30175
:1035B0000E949B1C82FE1FC081FE03C088E590E034
:1035C00010C088E790E00DC0C40186789070009725
:1035D00091F081FC02C080E201C08BE207FD8DE228
:1035E00090E0B3010E949B1C06C080E390E0B30111
:1035F0000E949B1CFA94DF14C0F3DA94F201ED0DE3
:10360000F11D808190E0B3010E949B1CDD20A9F791
:1036100006C080E290E0B3010E949B1CEA94EE2079
:10362000C1F740CEF3018681978102C08FEF9FEFF3
:103630002D960FB6F894DEBF0FBECDBFDF91CF91B0
:103640001F910F91FF90EF90DF90CF90BF90AF90C0
:103650009F908F907F906F905F904F903F902F90B2
:1036600008950F931F93CF93DF93689F8001699F05
:10367000100D789F100D1124C8010E944F1BC82FF8
:10368000D92F209731F08C2F60E070E0A8010E94C4
:10369000891CCE01DF91CF911F910F910895CF9397
:1036A000DF93AC018230910510F442E050E0E091EC
:1036B0006B0AF0916C0A20E030E0A0E0B0E024C09A
:1036C0008081918184179507D0F08417950771F454
:1036D00082819381109729F013969C938E93129771
:1036E0002CC090936C0A80936B0A27C0211531057A
:1036F00019F08217930718F49C01BD01EF01928124
:103700008381DF01E92FF82F3097D1F6211531059C
:10371000F9F0C901841B950B8430910580F48A81EE
:103720009B816115710521F0FB019383828304C0A5
:1037300090936C0A80936B0AFE01329642C0FE01A0
:10374000E80FF91F4193519302979983888339C0F9
:103750008091690A90916A0A009741F48091CD03A3
:103760009091CE0390936A0A8093690A2091CB03CB
:103770003091CC032115310541F42DB73EB780912E
:10378000CF039091D003281B390BE091690AF09187
:103790006A0AE217F30798F42E1B3F0B241735072C
:1037A00070F0CA0102962817390748F08E0F9F1F44
:1037B00090936A0A8093690A4193519302C0E0E0B2
:1037C000F0E0CF01DF91CF9108950F931F93CF9336
:1037D000DF939C01009709F48CC0DC0112971396CB
:1037E0001C921E92129760916B0A70916C0A61157F
:1037F000710589F48D919C911197820F931F2091EF
:10380000690A30916A0A2817390769F5B0936A0A7C
:10381000A093690A6EC0FB0140E050E001C0FC01CA
:10382000EA17FB0730F482819381AF010097B9F763
:103830001FC0E9012297FB83EA8308811981C9012E
:10384000800F911F8E179F0759F480819181800FFF
:10385000911F029699838883828193819B838A83B7
:103860004115510529F4B0936C0AA0936B0A41C02D
:10387000FA01B383A283C191D191EC0FFD1FAE1762
:10388000BF0781F4F901929182918C0F9D1F0296DE
:10389000DA0111969C938E938281938113969C9367
:1038A0008E931297E0E0F0E002C0FB01BC01DB0167
:1038B00012968D919C9113970097B9F7CB010296C0
:1038C0002D913C911197820F931F2091690A30919D
:1038D0006A0A2817390769F4309729F410926C0A9C
:1038E00010926B0A02C01382128270936A0A60936C
:1038F000690ADF91CF911F910F910895FC01059006
:10390000615070400110D8F7809590958E0F9F1FE1
:103910000895DC0101C06D9341505040E0F70895D7
:10392000FC016150704001900110D8F7809590958E
:103930008E0F9F1F08950F931F93CF93DF938C01DA
:10394000EB018B8181FF1BC082FF0DC02E813F8167
:103950008C819D812817390764F4E881F9810193EE
:10396000F983E88306C0E885F985802F19950097CB
:1039700031F48E819F8101969F838E8302C00FEF69
:103980001FEFC801DF91CF911F910F910895FA01A8
:10399000AA27283051F1203181F1E8946F936E7F8E
:1039A0006E5F7F4F8F4F9F4FAF4FB1E03ED0B4E07F
:1039B0003CD0670F781F891F9A1FA11D680F791FC0
:1039C0008A1F911DA11D6A0F711D811D911DA11DD1
:1039D00020D009F468943F912AE0269F11243019E1
:1039E000305D3193DEF6CF010895462F4770405D7C
:1039F0004193B3E00FD0C9F7F6CF462F4F70405D2B
:103A00004A3318F0495D31FD4052419302D0A9F785
:103A1000EACFB4E0A6959795879577956795BA957F
:103A2000C9F700976105710508959B01AC010A2E45
:103A300006945795479537952795BA95C9F7620F1C
:0E3A4000731F841F951FA01D0895F894FFCFDB
:103A4E00535300253032580025303458005343006C
:103A5E0025733A2025730A005352460025733A20E7
:103A6E00746F6F206D616E792073656E736F7273F4
:103A7E000A0053525300257325640A000A534F530C
:103A8E002028536572766F204F53212920617420B0
:103A9E00796F75722073657276696365005365720E
:103AAE00766F20256420646964206E6F74207265C1
:103ABE0073706F6E640A00536572766F20256420F2
:103ACE00726573706F6E6465640A00710201FFFFA8
:103ADE001000080808081000100000080808100060
:103AEE000808080010001000080808080808100050
:103AFE001000100010001000100008080800080840
:103B0E00100100000000000000000000010202038E
:103B1E000303030404040404040404050505050555
:103B2E000505050505050505050505060606060632
:103B3E000606060606060606060606060606060617
:103B4E000606060606060606060606070707070702
:103B5E0007070707070707070707070707070707E7
:103B6E0007070707070707070707070707070707D7
:103B7E0007070707070707070707070707070707C7
:103B8E0007070707070707070707070808080808B2
:103B9E000808080808080808080808080808080897
:103BAE000808080808080808080808080808080887
:103BBE000808080808080808080808080808080877
:103BCE000808080808080808080808080808080867
:103BDE000808080808080808080808080808080857
:103BEE000808080808080808080808080808080847
:103BFE000808080808080808080808080808080837
:103C0E00080808080808080808080800006D0A20B7
:023C1E000000A4
:00000001FF
